:100000000C9497080C94C4080C94C4080C94C4086D
:100010000C94C4080C94C4080C94C4080C94C40830
:100020000C94C4080C94C4080C94C4080C94C40820
:100030000C94193A0C94C4080C94C4080C94C40889
:100040000C94C4080C9450250C94C4080C94C40857
:100050000C94C4080C94C4080C94C4080C94C408F0
:100060000C94C4080C94F0390C94C6390C94C40850
:100070000C94C4080C94C4080C94C4080C94C408D0
:100080000C94C4080C94C4080C94C4080C94C408C0
:100090000C94C4080C94C4080C94C4080C94C408B0
:1000A0000C94C4080C94C4080C94C4080C94C408A0
:1000B0000C94C4080C94C4080C94C4080C94C40890
:1000C0000C94C4080C94C4080C94C4080C94C40880
:1000D0000C94C4080C94C4080C94C4080C94C40870
:1000E0000C94C4080C949F1E0C9423220C9460144E
:1000F0000C9424230C94FE140C94B12E0C94B9226D
:100100000C9419370C9427350C94A9230C94B61A27
:100110000C949B2F0C949C2C0C9495290C94AF2040
:100120000C94302C0C942F2E0C9476240C94453582
:100130000C94371E0C9462390C94BA390C94341F09
:100140000C94E4110C94B3140C94E9330C94A32D87
:100150000C94301D0C9450190C940C190C942B20F9
:100160000C94A0150C94C9100C9442160C942311F5
:100170000C94C4140C947F130C9427190C94A3268C
:100180000C94AD1D0C9495150C948F340C94E71FB2
:100190000C942C300C9424280C94D81E0C94421CE3
:1001A0000C94EA260C94F1330C94C8150C94352267
:1001B0000C9446120C94FA300C943F110C94852B3D
:1001C0000C94261C0C945F390C9425350C94502803
:1001D0000C9492110C94871A0C94AC230C94972CC9
:1001E0000C94D9200C94E7130C94971F0C94781658
:1001F0000C94CC240C94AC210C946C1B0C94782A99
:100200000C9464290C9407270C94A7390C94BA2FEA
:100210000C94E9260C9462220C94D02E0C94502A53
:100220000C94B9330C9496280C94B2290C94981B16
:100230000C94212A0C944E240C945A2C0C94FE24D9
:100240000C94D5340C9418360C94BE200C942336A0
:100250000C94F2220C940C130C94771A0C94B31196
:100260000C949D130C9424210C940F280C940A1CBC
:100270000C94BF150C94EF2104000200000400044C
:10028000000004070404000004040400000000004F
:100290000000040000000000040000020200000052
:1002A000020407000407070400000000040400041F
:1002B000040000040002020404040404000004001A
:1002C00004040404040404000400020304000404FD
:1002D000000400040000040004000000000000000E
:1002E0000001020102D7025028020001000000961E
:1002F000280300010000005F3904000100000062D3
:1003000039050001000000A739060100018710C966
:10031000100700010000003F1108010001D6022370
:1003200011090001000000E9260A02010182100FF4
:10033000280B030103D302EA260C020102D1022496
:10034000280D020002D702972C0E02000254100C56
:10035000130F030003D302E71310020002D1027F40
:100360001311050005CC029D131202000254102146
:100370002A13010001D602782A14020002D1025089
:100380002A150200025410952916040004C802A37D
:100390002D17050005C3029C2C18010001D602EFA1
:1003A0002119080008BB0262221A030003B802B92F
:1003B000221B0200025410AC211C020002D10235A3
:1003C000221D0400046F10F2221E010001D6022338
:1003D000221F080008B002D53420020002D1028F8B
:1003E00034210400035610501922030002731077C1
:1003F0001A230300027310871A240400045010F11A
:100400003325010001D602E93326030003AD02B90A
:100410003327060006A702FE1428030003B80227AC
:100420001929050003A402AC232A040003A10260D9
:10043000142B0300027310B3142C0400045010C4D6
:10044000142D0300039E02BF152E0300037510C870
:10045000152F060006980242163006000692027812
:100460001631010001D602E41132030003D3024623
:1004700012330200025410A015340300027310233B
:1004800036350400046F10193736030003B802B381
:100490001137010001D602D02E38030003D302FA2F
:1004A00030390200025410B12E3A03000273109B3F
:1004B0002F3B03000273102C303C0600069202BA58
:1004C0002F3D03000273100A1C3E03000273102626
:1004D0001C3F0800088A02421C4002000254109F80
:1004E0001E410500058502341F420400047C106C87
:1004F0001B430200025410981B440400038202377D
:100500001E450500057D02D81E46010001D6028564
:100510002B470400036510302C4805000578025A6B
:100520002C490400045010CC244A030003AD02FE01
:10053000244B0001000000BA394C0005000000788F
:10054000DAA559796FDBC815FF2AB30282760BDB77
:10055000D0414AB28BFCE12BDB74E3C41BC54D8157
:10056000A2206872240DCC6B39A48F2EFCDDFB8E8B
:10057000B92829D9451B201067E6BD39DEF17B87F4
:100580007F1BDDF7AAC89347D96A55577A7436DAC4
:1005900064D999F8F34F97973F8AF8243A198B7BDF
:1005A00055F59D2A34CE7EBC131766F8A3989E4C51
:1005B000E727D3F1643E9E4CE3D1D128ABCB32ADDB
:1005C00072D8E4B7515A1475967632A955AE45568D
:1005D000F755F7F64D363A5B1EC1895D0747256929
:1005E000F6206015A683F5791410E4B925686A4DE4
:1005F0003FAA7AFBA6174D5F1449DF30C3DC33FCFA
:10060000DACBF6C5ED09177840EA56EA2EE954F63A
:10061000A079D4B569A54BD525F654A12A78BF3960
:100620003F867714326D13BDEDBBBC7EAA4667537F
:100630007C5AB5561BB8D173318B627B846E54C221
:100640009FA3B378E2A9AAB4A83789AADCEDE9DAB6
:10065000A3B399DFC95CD952F03009E4B070A43477
:1006600029DBE16603192C22479CAB8DEAD222A933
:10067000FB6E87E1312D7A89E35CAED3BEE8123799
:1006800051A6CF49DEB769071640F79CF8C325E8A5
:10069000B3AB9BC15ED9E0F0E9DC116FF3285A2CB3
:1006A000C796B8D589395BDA8F3C725FB1FB9ABBCC
:1006B000AF85FB9245FAE29406E298B943D434B38D
:1006C00007C0270892D50AB686BF6033A06F668A36
:1006D000BC58CAA63F9DC6E390D129CE3FB69275BD
:1006E000A39E65B123B93CEDD244ABFFC001DB1E34
:1006F000DCA14B50628145690953AA0AEEBBF09A0E
:100700006E9ECA03DAC85EC0CAFC1E4617DB7E575F
:100710003B30B3A79EC8DF182C70776374AC4E3D96
:10072000CA64AB365B7AE16C19D283796E0AB96F11
:10073000C2C2AD25DD4B235936D180D3BAC4216660
:10074000B394947AF3F6CD5F000366B301EF93EAB6
:10075000B6208624B3360F14C13BBAC5E9D4A92705
:100760007386A3B3E2C17DABDC7DBE545932B411B4
:10077000919579B26736E3E004D934DE8B7098182E
:100780006BCE556B3F190988D853F58596C1A65392
:10079000FFB06E2BDBB206076D0E4A345CF6428D5D
:1007A000FCA5BA32EBD3D6D946FB9CEC79B7E8DC92
:1007B000245A5EA74AC94F3BF5BBB4280F2F56D821
:1007C0003F97F73DD873DD8CCE4EED0876D9902D4E
:1007D000B37E268EAC9529006D9BCB16CF430F625E
:1007E00014985A82A75675728F028D960901FA6481
:1007F00029DB8DACB29704E1022E01530C1DC9B662
:100800002EE51E28EBB46C4207306307C943D0863F
:10081000AB7BB8E2E73A19B76AB3912D3E42A37FAA
:100820002022C5FE700A0970A7B4934E4053B0EA67
:10083000B5029006974E5886226B3316EBD16803AB
:10084000DE4CF704FB3723A201AFE661DFA01640C0
:1008500091472383788986F312B04007E8F8CD7278
:100860009E4F77C8500596CCAB630E4244582AEB96
:100870005CAD5F12D0B5DBAB95E452C2C425B801C4
:10088000AE325B64D85887437A9C4B0A694063CA8E
:10089000844697BBC747A03095CBAA83C345BD5EAE
:1008A000C329E4542E20C139161EE9194E9A8B71C2
:1008B000B0D237B9973447ED6D1F1CB3806D582502
:1008C0003BA1F470B4060D8C77184897BD0791E8EA
:1008D000D411EC86DDFFD1D84A6F6C067DFD08523D
:1008E000870D306E65F61004EB997BD54EAC7637EC
:1008F000686AF0E7DDF3837031B31BEC04AA6F8AFA
:1009000065BEC3B02B9638B6047B90FF8DC4086DCE
:100910001A105EADF94DB1BBD22190FBC61E81E825
:100920000692E301802BF85C1E0A8E95D7CB4379A3
:100930008B3BA30E23EB24B62C3B81D5913B6D81E1
:1009400071CC2D3122B98BFEA822062F6BE05BCA39
:100950001CE057013C80A7504C07BDC4E693F81932
:100960001576CF0306B051A409DFB09374C1BD67FB
:100970007B44F4024A04DC9E83AC0098E6CC54C964
:100980006773058855CE7955CB703661222B8FDF82
:10099000C930402AF0AA20D8633ABCF636EB9D3520
:1009A0009E325DE0EEC1EA2CB2AB1D266161F833E8
:1009B000391940990C723360997B165DAFBBA7B4AF
:1009C00095216FA9746D835D596B75280BD8DB3445
:1009D0005AF2A6DF7EC70CDF4B09C6F7703A3E1D00
:1009E000521D86E9184FE35422C1580010A7303138
:1009F000738E3739F5041481D07A39460917B282DB
:100A000000061CB0A5490406A226A47640CE5501D6
:100A1000923237CA105DF68007804904745D986091
:100A2000C8A66E4D7463EFA5B13312F9DC285049A6
:100A3000184B4FDD4E3BAF0889203032F21FF2E3F6
:100A4000C007A2579BB4608D787E7599DC9CFF131C
:100A50005311CCA92EEE56C9EDFB8F2B442CA84385
:100A60006F2F6647B71753F83F19058BDD132D5EBF
:100A70008D8F6EAF70E1F2C3A7CB9F93779FAF7F4F
:100A8000417719D3BFA3D1CDE51D50A55D2937E925
:100A9000349E8F81F0F6EB0D9F36456CFC7C7D79A2
:100AA000FDFE1FD7C9D7F71FAF3E7D45B54D71720B
:100AB00075FD1926F916B2556981675DC359D77856
:100AC00016ACBE3FFF905C9CDF5DE1367CD4EACB88
:100AD000F99755B2BABB59FD022BAB6B5C99BF625B
:100AE00006D2434E44593B55C4A658C14F7AC31849
:100AF00068C0A6717C7B3E1E9DFD6B7CB4FC375CA0
:100B0000F302BF97FC7D89DF000234B8C201E42EF6
:100B100034B8C601D49334788783C8F0FF4403B354
:100B2000C1DF70109B0DFE8E8385E1F9998E313CFB
:100B30001F68803CAF03688094958AF9C96C36833E
:100B40001B1F8D521D8FA3454EE94057C8182AFF21
:100B50007B78B0E132CF23FDE1F330262934C11692
:100B600052CF44E546E9828C63CDC1940BC8F302B1
:100B70006DFC45D8B42C67C0BC4C2B51D59D00638F
:100B800017081802308E814D90CD8AA7AD826FB6BE
:100B90003D2D1AF01E388911D9F2F65A526C6B2786
:100BA000625DB702CCE0AF76AC34AEE6344F539A18
:100BB000130E60FD538701016A8E0D5C0812F9B4B3
:100BC00043EAD45C932B2CCE340DB146523479CE0B
:100BD00087799662076D0D379595B04588E307A331
:100BE000BBE4AE8968D2164C4EC8B6AD5B4A35ED53
:100BF000422B2184E98E7A27EF52786F2EBA5A1051
:100C000052602D4C0ECEA1EE3D0758619B0BBED716
:100C1000C1718EA1D05299760D65B97E0EC8F02AA9
:100C20006929214872B16317CBFA51DADB08AC8726
:100C3000D1A3FDB2AB9E5DBDCCB5CEDEBA4912DD0F
:100C4000F99805582210A060B3C3F2C3CE62996B25
:100C50007103C1269837B94DB6558D619C45430245
:100C60005041DFF837690E80966290DD04BB20F0BA
:100C7000DDA4CF68A74B2B502E596FA4D6E9460AA6
:100C8000A8762016598581F86F94466BD2901EE69F
:100C90007D81D5163063E8160615C9F0E5A3444DED
:100CA00060D4FE36C3366D733276438D9DA31B141C
:100CB0003F653302BEDA75513F713AF411AC3C1511
:100CC000FC1C742F42156C7E840B60F7BC808DAACF
:100CD0007041550D270D5C23D0528537F5D3334233
:100CE0004F67FD4D5B6F4098255C3DC5B7AD21EA70
:100CF000C22D41D8121D1733F2CFD23C0A8D153DBB
:100D00000B8E4151831AD092B16A5939823DE988DC
:100D1000275514108C32D86FD0FEE0F0EA399D844C
:100D2000BEC381C9F90ABC90754817400A55F6A59B
:100D30009DB3CE013A5CD91607155BB019F92D6148
:100D400050D80F5C1947EEEA5AAC537A1DBF0C6BB2
:100D5000CB2FA149A1C880909A3A1C98BF903C9093
:100D600013E2B096542BDF55BA6F30164B766A42B9
:100D700052CC6CBEA65DB6CDEB0D4BF1074ECAA8AA
:100D8000B90A55485F3DC0C68808DCB30BE6B55FBD
:100D90008057B18F006468403AF46088F2504F6A1F
:100DA000D66FD0A961C0AAAB0230EE113648EF0B66
:100DB0000B5DEEF9A754480A937C703B6AA7723D1D
:100DC000139F003C2100DE63BEB0C6CE85FE813B92
:100DD00013D40F76386ABAC439B72334D69F152096
:100DE000049B4C06CB64502E3F226821D115698BA1
:100DF000B1035B5B07320FD4175B37B69D0CDCB2D7
:100E0000EF60BE05A169AF3583B109D283D96419FA
:100E1000C714EACC604EB18E07F398940F83F97C27
:100E200001DFB3D757AA0F1AC006C96D6F53A48646
:100E3000C9A346C4AC32B9530A9F82D40FD6B4BEFC
:100E40009231F597CDCEB80A0877BBEFC9F7886B1A
:100E5000ADD635FE162AE86D63BA8F998DAB8D0736
:100E6000AD10DEF150E1B40CFAF4038E34287C05A9
:100E7000ADF06B8E112FB93EF269E8D2F5C421783E
:100E80009A2E0A3D909A2D3867AD8AB27F40B5F010
:100E9000DE4BEAA1523DFDBD5B1B0EF391F8D38FF3
:100EA00031B1B01D2E0DEEE71A56CBC83788063B80
:100EB0006F6BA86037FB6784FD27609FFB9E4B62CA
:100EC000D5EFD3621E1B254F7C5B252075FD1536A3
:100ED00087132405930B042276732796C9027CCDD1
:100EE00056FC7FC0C68ED1E30E7608FE2F23EBF7AB
:100EF0008DEC781636888CBCEDE5FA2CA39E7C86AA
:100F00004A81178014C24EE4124B638FBBB66973DB
:100F10005800CB3041FD432298861C417D1532801C
:100F2000A60E16C57BEA0D1B1FA19EA36111FA3BFD
:100F300066B1A42211008DB2D5C59C5365ED6D59E3
:100F4000F7A5F9D1BF728728282B776A4E6EB34177
:100F5000CABD8C77706DA88683CEDE736422DD9C5B
:100F60008E7D21BA7F7F2C41D9D307C5A5779E2CD2
:100F70007595EEC1C66C080C5430525ECC7FA5E866
:100F8000C3452C1DCC1F24A1FC7A1C9F4C2627E3B3
:100F9000E3C97476BC99DF2FE2751CC9D1EB7F01E0
:100FA000FE5EA07F650A00002000230026002900C5
:100FB0002C002F003200000100000301060109018E
:100FC0000F470044004500800135480044004500BB
:100FD00020010D88008000810080000E8A008000C2
:100FE000810020000F8C008000810008000CB300FD
:100FF000B000B10080033EB400B000B10020032374
:101000009800900091008000249A009000910020A8
:1010100000259C009000910008003BA800A000A1C2
:101020000080003CAA00A000A10020003DAC00A070
:1010300000A10008005B28012001210180005C2A3A
:10104000012001210120005D2C0120012101080067
:101050000400000004040404070400000204000269
:10106000040204000704020704000002040402044E
:101070000000040407040002040404000404000443
:101080000401070400040200000000000000060044
:1010900002026617045010650A025410644002737D
:1010A0001063400356106240036510611F0759101A
:1010B00060400365105F0B0260105E400362105DCC
:1010C000400365105C1C0768105B400273105A14E3
:1010D000046F105940027310581003751057110413
:1010E00078105611047C10550D028010540B0187A6
:1010F0001053400182105212048310510B018710CB
:1011000050100288104F15038A100040028D104EB7
:101110000E028F104D090191104C06000000282985
:101120002A2B2C2D2E2F50515253545556571124E3
:101130001FBECFEFD1E2DEBFCDBF00E00CBF14BEBB
:101140000FB6F894A8958091600088618093600044
:10115000109260000FBE12E0A0E0B2E0ECEAF5E70A
:1011600000E00BBF02C007900D92AA32B107D9F779
:1011700023E0AAE2B2E001C01D92A739B207E1F76D
:101180000E9481260C94D43A0C940000CF93DF93F4
:10119000CDB7DEB76A970FB6F894DEBF0FBECDBFEE
:1011A0000E946E266B017C019E012F5F3F4F19014B
:1011B000AE01475F5F4F5D874C8780912602882391
:1011C00009F43DC50E946E26C61AD70AE80AF90A34
:1011D000F89480912602882351F08FEF80932602A5
:1011E00078940000F894809126028111F9CF7894C8
:1011F0000E946E26A7019601260F371F481F591F10
:101200002A8B3B8B4C8B5D8B81E0809326028091F7
:101210004A02882309F440C010924A028FEF898362
:1012200063E272E2C1010E946E118C01892BA1F16F
:10123000D80156968C9182FFF3CF0E946E26F894C7
:10124000F80137892689422F4B7F468B78949F93EC
:101250008F937F936F931F923F9321701F922F93D1
:1012600089811F928F934DEDC42E40E1D42EDF92E1
:10127000CF920E94D4312DB73EB7245F3F4F0FB6B7
:10128000F8943EBF0FBE2DBF63E272E2C1010E941F
:101290006E118C01892B61F680914B028823F9F045
:1012A00010924B028FEF89836FE874E3C1010E94B3
:1012B0006E11FC01892B99F0958D868D9813F4CFD2
:1012C000F894858D968D891709F497C578946FE801
:1012D00074E3C1010E946E11FC01892B69F78091B2
:1012E0004702882309F449C0109247028FEF8B8789
:1012F000DE011B962D0167E279E1C2010E946E11A9
:101300005C01892BD1F1F501818D80FFF4CFF89438
:101310006480758086809780818D8E7F818F7894A0
:10132000808D813009F4F5C308F4D6C3823009F406
:1013300096C3833001F7CB8419821A82910142E06F
:1013400061E0F501848995890E947D1909811A81DE
:10135000102701271027F02FF670EF2E20E030E045
:10136000B401A301C5010E94401567E279E1C20101
:101370000E946E115C01892B31F680914602882310
:10138000B1F1109246028FEF8B879E01255F3F4F90
:101390002901B2E0DB2E1DE2E12E08E0F02E60EA2A
:1013A00075E1C2010E946E118C01892B01F1D801F7
:1013B00052968C9182FFF3CF80FF82C0C8010E94B9
:1013C0004835F801D28AE982FA82910142E060E070
:1013D000848595850E947D19C8010E94BF1660EA28
:1013E00075E1C2010E946E118C01892B01F7809179
:1013F0004502882309F469C0109245028FEF8B875C
:101400009E01255F3F4F290166246A94ADE17A2E43
:1014100003E263EB71E1C2010E946E115C01892B52
:1014200009F453C0D50150968C9182FFF2CFF89405
:10143000F50144815581668177811489108A148A67
:10144000789480859185A285B3856A017B01C81A4D
:10145000D90AEA0AFB0ACE86DF86E88AF98AD5012C
:10146000112389F052968C91F501E80FF11D658AE0
:10147000168A178A8D5FF501828B8E32D8F411504F
:10148000D5011111EFCF51968C91882309F484C2B4
:10149000813009F46BC3823009F461C4D5015296DE
:1014A0008C9190E08E970CF4B4CF6B85C5010E94AF
:1014B000F336AECF6B85C5010E94F3361150E0CFF5
:1014C0006B85C8010E9404176ACF8091510288235E
:1014D00009F462C0109251028FEF8B87FE013B9698
:1014E0002F0112E0A12E03E2E02E8AE6F82E94E00E
:1014F000B92E20E4C22E38E0D32E61EB7EE2C20189
:101500000E946E118C01892B09F446C0D8015296B5
:101510008C9182FFF2CF80FF35C1C8010E9448350F
:10152000F801A28AE9821A820484F585E02DA101DE
:1015300062E080810E947918F982BA82D8011C96F3
:10154000ED91FC911D97A10162E080810E947918C4
:10155000F982CA82D8011C96ED91FC911D97A101D8
:1015600062E080810E947918E982DA82D8011C96B3
:10157000ED91FC911D97A10162E080810E94791894
:10158000C8010E944B3061EB7EE2C2010E946E11E5
:101590008C01892B09F0BACF809148028823E9F0A9
:1015A000109248028FEF898301EA10E168E97BE13C
:1015B000C1010E946E11009781F0FC01208D2F3F28
:1015C000A9F7F8942685211105C3789468E97BE191
:1015D000C1010E946E11009781F780914902882312
:1015E000D9F1109249028FEF89830CE910E168ED7F
:1015F0007EE1C1010E946E11009771F1DC011E961F
:101600002C911E9723FFF3CFF894FC012685277FAA
:10161000268778949C01265E3F4F3F932F935096E8
:101620008C918695869586951F928F9389811F92BE
:101630008F931F930F930E94D431EDB7FEB7389666
:101640000FB6F894FEBF0FBEEDBF68ED7EE1C1019D
:101650000E946E11009791F680914E02882309F442
:1016600046C010924E028FEF898302E910E16EEFBF
:1016700074E2C1010E946E11FC01892BC1F1848DBD
:1016800080FFF5CFF8949481258136814781548974
:1016900065897689A789B08DF18CE28CD38C848D95
:1016A0008E7F848F7894DF92EF92FF92BF93AF93F7
:1016B0007F936F935F934F933F932F939F93898172
:1016C0001F928F931F930F930E94D4312DB73EB773
:1016D000205F3F4F0FB6F8943EBF0FBE2DBF6EEF99
:1016E00074E2C1010E946E11FC01892B41F6A8959C
:1016F00080917302882329F080E480936000109227
:10170000730210913403112309F472C000912A026C
:1017100000FD12C0153008F46BC0B0907402CB2CE1
:101720008BEF8B0D8C3308F4B1C2EEE7CE1609F4C3
:1017300022C4016000932A02412F50E06EE770E05E
:1017400084E792E00E94A53A009739F00E7F00935B
:101750002A028457924011E0180F01FD0CC0902F0F
:10176000926090932A028AE395E09F938F930E9460
:10177000D4310F900F90B12EDD24DA9480E0EB2C61
:10178000F12C1DC06B85C8010E946A30B6CE90E076
:10179000402F50E0481B590BB701680F791F6C5858
:1017A0007D4F8C589D4F0E94BB3A10922602802F8D
:1017B0009FB7F89420913403121761F09FBF1091E6
:1017C0003403012F0B1919F79FB7F89420913403B4
:1017D0001213F4CF009334039FBFF1E0DF1208C06F
:1017E0008AE395E09F938F930E94D4310F900F90DE
:1017F0000E946E266B017C012A893B894C895D8998
:10180000621B730B840B950B809033029090340213
:10181000A0903502B09036023FEF831A930AA30AD4
:10182000B30A8092330290923402A0923502B092B1
:10183000360240902F02509030026090310270903A
:101840003202460E571E681E791E40922F02509299
:10185000300260923102709232026115710541E0EE
:101860008407910508F0F0C19B01AC010E94243A65
:10187000DC01CB0181509F4FAF4FBF4F892F9A2F73
:10188000AB2FBB2740912B0250912C0260912D026F
:1018900070912E02840F951FA61FB71F84179507FE
:1018A000A607B70718F48FEF9FEFDC0180932B0298
:1018B00090932C02A0932D02B0932E0240916F02C0
:1018C0005091700260917102709172025C546B438E
:1018D0007B4F2F2DC416D506E606270B27FD6DCCB2
:1018E000BF93AF939F938F937F926F925F924F922C
:1018F000BF92AF929F928F9285E091E19F938F93D9
:101900000E94D4316DB77EB7625F7F4F0FB6F894F7
:101910007EBF0FBE6DBF80916F0290917002A0914B
:101920007102B0917202C816D906EA06FB0698F455
:1019300080916B0290916C02A0916D02B0916E0249
:101940000196A11DB11D80936B0290936C02A09330
:101950006D02B0936E02C0926F02D0927002E0925C
:101960007102F092720210922B0210922C021092CD
:101970002D0210922E0210922F021092300210921D
:1019800031021092320210923302109234021092FD
:1019900035021092360211CC82E389831A820E94AA
:1019A0006E266B017C01910142E061E0F5018485C6
:1019B00095850E947D190E946E26DC01CB018C1951
:1019C0009D09AE09BF0981329340A105B10508F018
:1019D000F3C0998197FD2AC12E853F854889598991
:1019E000C21AD30AE40AF50AD50153968C918823CA
:1019F000C1F02FEF280F41E050E002C0440F551F07
:101A00002A95E2F7052E000C660B770BC40ED51E47
:101A1000E61EF71E04C0F694E794D794C7948A95FF
:101A2000D2F7BFEFCB16D104E104F10408F05CC19A
:101A30002A8130E0220F331F892F90E0982F8827CA
:101A4000990F822B932BF5012289E20FF11DC58A94
:101A5000868B978B2D5FD50152962C931FCDCB840F
:101A600081E089831A821B821C82910143E061E03C
:101A7000848995890E947D1969817A818B819C81F5
:101A80000E94343ABB27A92F982F872F9C01AD01C4
:101A9000442755272E873F87488B598B37E039835A
:101AA0001A82910142E061E0D50154968D919C919A
:101AB00055970E947D198A81982F9C7F8E85817011
:101AC000E92EE82A0E851F8528893989B401A301EA
:101AD000C5010E9440150FCCCB8419821A821B824B
:101AE0001C82910144E061E0848995890E947D19FE
:101AF00069817A818B819C810E94343AB62FB770BC
:101B0000EB2E8B019C01B401A301C5010E9440157D
:101B1000F2CBCB84CE863CE0D32ED9821A821B82B4
:101B20001C82910144E061E0848995890E947D19BD
:101B300069817A818B819C810E94343A6B017C019E
:101B4000BFE0B9831A82910142E061E0F501848926
:101B500095890E947D19970186013327CE84EA80FA
:101B6000B401A301C5010E944015C5CB8FE789834D
:101B70008EEF8A830E946E266E8B7F8B888F998F63
:101B8000910142E060E0F501848595850E947D1910
:101B90000E946E266B017C01DC01CB012E893F89FE
:101BA000488D598D821B930BA40BB50B813293404A
:101BB000A105B10508F4A5C0D50152968C91F50197
:101BC000E80FF11D658A92E0968B178A8D5FF5010B
:101BD000828B64CCFC01318D308F7894AC01415FF5
:101BE0005F4F5F934F931F922F9387891F928F931D
:101BF00089811F928F931F930F930E94D431EDB769
:101C0000FEB73A960FB6F894FEBF0FBEEDBFCECC2E
:101C10002C853D85E217F30709F0E0C0809590E040
:101C20002A8530E08217930709F408C1D50152963E
:101C30008C91F501E80FF11D658A93E0C5CFCA8A42
:101C4000DB8AEC8AFD8AE0CA6115710550E18507DF
:101C5000910508F028CE8B019C0101501F4F2F4F9A
:101C60003F4F5527432F322F212F0E94243ADC016A
:101C7000CB0140912B0250912C0260912D0270916A
:101C80002E02840F951FA61FB71F08CED090750295
:101C90008D2D807F803109F048CD1B1508F4A8CD2B
:101CA0008B2D90E0FC01ED58FD4F20812E3709F07F
:101CB0003CCDAC014F585D4F4A01FC01EE58FD4F41
:101CC0009081DA018C91292F30E07901F82A6DEFAB
:101CD0006B0D84E792E00E948426E816F90609F469
:101CE0004CC1C090740221CDF5018289E80FF11D2D
:101CF000658A91E0968B178A8D5FD50152968C93F9
:101D0000CDCB80EC89831A82910142E061E0D5015C
:101D10001C968D919C911D970E947D1949812A8165
:101D2000942F9227892F82958F709827892F8695D7
:101D300086958927982F9695892780FD93C046FF21
:101D4000A1C0F5018289E80FF11D658A75E0C72EF3
:101D5000C68A178A8D5FD50152968C939FCBD50189
:101D60001C96ED91FC911D9714818280938040E038
:101D7000B401812F0E94FD180E946E266B017C0128
:101D8000B0E1CB0ED11CE11CF11C0E946E262F2D60
:101D9000C616D706E806290B27FFF7CFF89441E0CF
:101DA000B401812F0E94FD180E946E266B017C01F8
:101DB0007894F1012AE011922A95E9F734E8398301
:101DC0000A8391014AE061E0D5011C968D919C91B6
:101DD0001D970E947D19FE01339685E09191892718
:101DE00028E030E005C0880F2150310909F410CFF8
:101DF00087FFF9CF880F8725F7CF548965899089A8
:101E00002189328943898F5F858F78946F935F939F
:101E10004F933F932F939F9389811F928F9348ED08
:101E200050E15F934F930E94D4318DB79EB70A96CD
:101E30000FB6F8949EBF0FBE8DBF36CA898584FF4A
:101E400018C08B8187FD65C0D50152968C91F50134
:101E5000E80FF11D658AB4E0B68B178A8D5FF50136
:101E6000828B1CCBF5018289E80FF11D658A93E016
:101E700041CFD50152968C91F501E80FF11D658A8D
:101E8000B5E0EACF6E857F8588899989C61AD70A19
:101E9000E80AF90AD50153963C913323C9F08FEF34
:101EA000830FE1E0F0E002C0EE0FFF1F8A95E2F73A
:101EB000CF01092E000CAA0BBB0BC80ED91EEA1EBF
:101EC000FB1E04C0F694E794D794C7943A95D2F7D2
:101ED000FFEFCF16D104E104F10408F043C0842FD2
:101EE00090E0AC01542F4427550F550FF4E02F9F7D
:101EF000C0011124842B952BD50152962C91F5010C
:101F0000E20FF11DC58A868B978B2D5FF501228B21
:101F1000C5CA2E853F8548895989C21AD30AE40A61
:101F2000F50A31E5C31635E5D306E104F104D0F432
:101F30002C8130E0220F331F90E0982F8827990FD3
:101F4000822B932BD50152963C91F501E30FF11DA5
:101F50002F8126952F73258B868B978B3D5FF501FF
:101F6000328B9CCAD50152968C91F501E80FF11D78
:101F7000658A91E029CE11E0FECB802F8D7F809382
:101F80002A0280910802D812FFC081E08D0D8F7067
:101F9000806180930802B6E78B16B2E09B0609F0D9
:101FA00008F4BEC0E6E7F2E0BA8ECDB6DEB68F0129
:101FB0000F5F1F4F2081222309F4E8C0E9E3F5E019
:101FC0008491281708F0E2C030E0220F331F220F5F
:101FD000331F220F331FF901E652FD4FE491EDB696
:101FE000FEB644E0E49FE018F10811240FB6F8941F
:101FF000FEBE0FBEEDBE8DB79EB70196F901E4524D
:10200000FD4F4491F901E352FD4F65917491FB013D
:10201000640F711DAC01DF86CE869F8B8E8BE61719
:10202000F70709F482C08016910608F46EC0A491E7
:10203000A53028F1A73009F068C02801BFEF4B1A7E
:102040005B0AD801AC9082010A0D111D8016910621
:1020500008F45BC0B12CC12CD12CDA01AD92BD9239
:10206000CD92DC921397612C712C14964D925D9257
:102070006D927C921797485F5F4F3196D0CF7A016F
:1020800084E0E80EF11C68019FEFC91AD90AD80153
:102090001C91912F9F77492E512C612C712C012F6F
:1020A00000760036A9F117FF3EC086010F5F1F4F73
:1020B000D80111978C91440C551C661C771C440C5C
:1020C000551C661C771C440C551C661C771C440C64
:1020D000551C661C771C440C551C661C771C440C54
:1020E000551C661C771C440C551C661C771C982FCD
:1020F0009F77492A87FDDACFDA014D925D926D9282
:102100007C921397A70131968ACF87E00E945839B5
:10211000B0EE4B2A55245A94652C762CC4CFBA8C39
:10212000DD24D3942BCB8601E7CFCE84DF848E8948
:102130009F8940912702442331F0F901E552FD4F78
:10214000E491E0FF11C021523D4FF90125913491F6
:10215000F90119950FB6F894DEBE0FBECDBE081575
:102160001905E8F6F80121CF809128021F928F937C
:10217000E4E1F1E1FF93EF930E94D4310FB6F894BC
:10218000DEBE0FBECDBEEBCF1B2DEDCA85E00E949B
:1021900058390F931F93CF93DF938C0180913F02A7
:1021A00090914002892B09F04BC060913E0270E093
:1021B000623071052CF482E080933E0262E070E0B0
:1021C000E0913A02F0913B024DB75EB741505F4F4C
:1021D00044275A959F01C0E0D0E0C901860F971FA0
:1021E0004817590730F121969C01C115A4E0DA0780
:1021F000A1F78E1B9F0B0E94B131D0934002C09378
:102200003F0290933D0280933C020E94EC28F8012B
:1022100080819181A281B381809341029093420297
:10222000A0934302B0934402DF91CF911F910F918D
:102230000895209711F0C901DCCF80E10E94583940
:102240008DE00E945839CF932091380230913902A5
:10225000232B91F4FC01C0818C2F90E0880F991FF3
:10226000880F991F0E94B1319093390280933802F0
:10227000C0933702CF9108958AE00E945839809127
:102280003F02909140029F938F9321E0309127026B
:10229000311101C020E01F922F93209144022F930F
:1022A000209143022F93209142022F9320914102CB
:1022B0002F9321E0892B09F420E01F922F9386EFC2
:1022C00090E19F938F930E94D4318DB79EB70C9667
:1022D0000FB6F8949EBF0FBE8DBF0895CF93DF93C6
:1022E000EC01988140913702A0913802B0913902F7
:1022F0000BC0FD0184E0989FE00DF11D11242081A9
:1023000031812617370741F09F5F941790F380E0E3
:1023100090E0DF91CF910895988382819381DF913E
:10232000CF910895FC01808982FD19C08460808B63
:102330001092260281E08093450244815581668196
:10234000778180859185A285B385840F951FA61F0F
:10235000B71F84839583A683B78381E0089584891A
:102360008F5F848BE5CFFF920F931F93CF93DF9303
:10237000EC01F88483E08F1508F145E450E063EB4D
:1023800071E188810E94A5288C0182E991E1F80120
:102390009383828369EB73E38C810E94D428F801D4
:1023A00095878487FC01858180FF0BC0F801F18A45
:1023B000DF91CF911F910F91FF90089582E20E94CB
:1023C000583981E20E9458398F929F92AF92BF9202
:1023D000EF92FF920F931F93CF93DF931F921F9261
:1023E000CDB7DEB77C0160EA75E1FC0180810E9417
:1023F000D4288C0189EB89831A820E946E264B01B6
:102400005C019E012F5F3F4F42E061E0F80184854F
:1024100095850E947D190E946E26F80121892F93CF
:1024200020892F932A811F922F9323891F922F9304
:1024300027852F9326852F93DC01CB0188199909D5
:10244000AA09BB09BF93AF939F938F93BF92AF929B
:102450009F928F92F70180811F928F9384EC90E17D
:102460009F938F930E94D4310FB6F894DEBF0FBEB6
:10247000CDBF0F900F90DF91CF911F910F91FF90E3
:10248000EF90BF90AF909F908F9008954F925F9282
:102490006F927F928F929F92AF92BF92DF92EF9254
:1024A000FF920F931F93CF93DF931F921F92CDB78D
:1024B000DEB77C01FC01D08060EA75E18D2D0E94C1
:1024C000D4288C01F70180859185A285B385892B5D
:1024D0008A2B8B2B99F1C8010E944835F701848122
:1024E0009581A681B781F80184839583A683B783FC
:1024F000F70180859185A285B385F8018087918752
:10250000A287B38781E0828B118A108A178616868C
:10251000138AC8010E949A350F900F90DF91CF91D6
:102520001F910F91FF90EF90DF90BF90AF909F9021
:102530008F907F906F905F904F900895C8010E9498
:102540004835F801128A8DE289831A820E946E262C
:102550004B015C019E012F5F3F4F42E060E0F801BC
:10256000848595850E947D190E946E262B013C0171
:1025700081E2F82E99EBE92E03C0FA94FF20C1F016
:10258000E9821A829E012F5F3F4F42E061E0F8012D
:10259000848595850E947D198A818F7749F08132E3
:1025A00060F76D2DC8010E940417FA94F110E8CF6E
:1025B000F8018389882331F06D2DC8010E94DE1651
:1025C000F8018389F80191899F9390899F939A815B
:1025D0001F929F931F928F9387858F9386858F93EA
:1025E000D301C20188199909AA09BB09BF93AF9306
:1025F0009F938F93BF92AF929F928F921F92DF9281
:1026000084EC90E19F938F930E94D4310FB6F8949D
:10261000DEBF0FBECDBF80CF8F929F92AF92BF9291
:10262000FF920F931F93CF93DF938C016DE973E1BA
:10263000FC0180810E94D428EC010E9448358F8DD6
:1026400098A1892B09F058C0F80104811BA1FF242F
:10265000F394002339F16C897D898E894F2D0E9476
:10266000FD1821E001111CC014FB882780F991E0BE
:102670008927281741F08F89988DA98DBA8D892BCC
:102680008A2B8B2B89F410711F291BA3DF91CF910B
:102690001F910F91FF90BF90AF909F908F900895E2
:1026A00020E0E2CFF12CD7CF0E946E268F88988C45
:1026B000A98CBA8CDC01CB01880D991DAA1DBB1D0C
:1026C000888B998BAA8BBB8B8C839D83AE83BF83B6
:1026D00087E097E29B838A83107114601F291BA3F4
:1026E000CE01DF91CF911F910F91FF90BF90AF90DE
:1026F0009F908F900C949A3582E10E945839CF9325
:10270000DF93EC016DE973E188810E94D428F8948D
:10271000FC01278D30A1232B69F44C815D816E81F2
:102720007F81FC01438F548F658F768F7894DF9182
:10273000CF91089584E10E945839CF92DF92EF92B1
:10274000CF93DF93EC0161E088859985AA85BB85ED
:10275000892B8A2B8B2B09F460E08C810E941C252D
:102760006B01E82E44E250E06DE973E188810E943C
:10277000A528FC01C48AD58AE68A21E048855985C6
:102780006A857B85452B462B472B09F420E04C8539
:102790005D856E857F85452B462B472BB1F430E058
:1027A000232BFC0123A3488959896A897B89478B9C
:1027B000508F618F728F6AE070E04F96DF91CF91FA
:1027C000EF90DF90CF900C94362930E1E9CFCF9293
:1027D000DF92EF92FF920F931F93CF93DF938C01C1
:1027E0006DE973E1DC018C910E94D428EC010E9418
:1027F0005029FC01D8011496CD90DD90ED90FC900D
:102800001797C282D382E482F58218964D915D912A
:102810006D917C911B974683578360877187F894ED
:10282000118210828F8D98A1892B81F0A9A1BAA164
:10283000ED93FC93FAA3E9A37894DF91CF911F91D4
:102840000F91FF90EF90DF90CF900895FAA3E9A346
:10285000F8A3EF8F8BA182FD25C0C88AD98AEA8AA6
:10286000FB8A982F94609BA381FD10C0CE010E942B
:102870004835CC82DD82EE82FF8287E097E29B833F
:102880008A83CE010E949A357894D7CF4C815D819E
:102890006E817F81872F4C155D056E058F0987FF3F
:1028A000E5CFF2CF488959896A897B89972F4C15E2
:1028B0005D056E059F0997FFD0CF83E10E945839CF
:1028C000AF92BF92CF92DF92EF92FF920F931F933E
:1028D000CF93DF93CDB7DEB77C01ADB6BEB6FC01BA
:1028E000C08064EC74E18C2D0E94D428F7016481CF
:1028F00040855185D4842DB73EB72D1931090FB6C7
:10290000F8943EBF0FBE2DBFEDB7FEB731967F01E5
:102910008F012D2DFC0180810E94EF17FF92EF9215
:102920001F92DF921F92CF9289EC90E19F938F9339
:102930000E94D4312DB73EB7285F3F4F0FB6F894B1
:102940003EBF0FBE2DBF0FB6F894BEBE0FBEADBECC
:10295000DF91CF911F910F91FF90EF90DF90CF907B
:10296000BF90AF900895CF93DF93EC0164EC74E1D6
:1029700088810E94D428488559856C81FC0180811A
:10298000DF91CF910C947918EF92FF921F93CF9320
:10299000DF93EC018C85182F1F7741E050E064EC49
:1029A00074E188810E94A5287C018C819D81AE8183
:1029B000BF81892B8A2B8B2BF1F48091BC0082FD87
:1029C00010C061E089E10E941C2561E088E10E945D
:1029D0001C251092B90088E48093B80084E08093AD
:1029E000BC00812F880FF7018083DF91CF911F9169
:1029F000FF90EF90089580E30E9458390F931F9342
:102A0000CF93DF938C0167E279E1FC0180810E9422
:102A1000D428EC010E944835F80184819581A68173
:102A2000B7818C839D83AE83BF8380859185A2858A
:102A3000B38588879987AA87BB87892B8A2B8B2B9D
:102A400029F4DF91CF911F910F9108958485958589
:102A5000A685B7858C879D87AE87BF87808991893A
:102A6000A289B389888B998BAA8BBB8B84898E8B27
:102A70001F8ACE01DF91CF911F910F910C949A354F
:102A80008F929F92AF92BF92CF92EF920F931F932C
:102A9000CF93DF93EC01480159011F92EF92BF924F
:102AA000AF929F920F937F936F935F934F931F9279
:102AB000CF928EEC90E19F938F930E94D4318DB78B
:102AC0009EB70E960FB6F8949EBF0FBE8DBFE11055
:102AD00009C08C859D85AE85BF8588169906AA0696
:102AE000BB0688F48F898F5F8F8B9E898917B0F41E
:102AF000DF91CF911F910F91EF90CF90BF90AF904A
:102B00009F908F90089588899989AA89BB89881593
:102B10009905AA05BB0530F31F8AEACF80912702E9
:102B20008111FACF8CE10E945839FC01928994609E
:102B3000928B1092260281E08093460280E00895F5
:102B40000F931F93CF93DF938C0146E450E060EA2C
:102B500075E1FC0180810E94A528EC0185E995E1E1
:102B60009B838A8369EB73E3F80184810E94D428F4
:102B70009D878C87DF91CF911F910F910895FC0164
:102B80004481558166817781208580810C94B62AA5
:102B9000EF92FF920F931F93CF93DF937C0162E438
:102BA00076E1DC018C910E94D4288C010E9450298E
:102BB000EC01F70184819581A681B7818A839B838B
:102BC000AC83BD83808591859F838E83F894198221
:102BD0001882D80151968D919C915297892BB9F109
:102BE0005396ED91FC915497D183C0835496DC9316
:102BF000CE93539780E090E07894892B39F4DF915D
:102C0000CF911F910F91FF90EF900895C8010E94FE
:102C10004835D80112968D919C911397895A934209
:102C2000F1F08A819B81AC81BD8124E233E2F8011D
:102C30003383228384839583A683B783C801DF917E
:102C4000CF911F910F91FF90EF900C949A35F8015E
:102C5000D48BC38BD28BC18B81E090E0CDCF8A81A6
:102C60009B81AC81BD81F80144815581668177816A
:102C7000272F481759076A072B0B27FFD6CF8FE15D
:102C80000E945839CF92DF92EF92CF93DF93EC01FD
:102C9000488559856A857B852C858C810E94B62A5A
:102CA0006B01E82E45E150E062E476E188810E9404
:102CB000A528FC01C086D186E28688899989908BF7
:102CC00087878C899D89AE89BF8983879487A587EB
:102CD000B68784E293E29383828368E070E0CF0159
:102CE0004196DF91CF91EF90DF90CF900C943629F1
:102CF000DF92EF92FF920F931F93CF93DF93EC013C
:102D0000D88883E08D15B0F169EB73E388810E9468
:102D1000D4287C018AE090E00E94B1318C0161E00E
:102D20008C810E94C418F80160837183828360E003
:102D300088850E941C25F80163837483858360E085
:102D40008C850E941C25F801668377838087D18655
:102D5000F7018581982F967081F4F7011183008324
:102D600082608583DF91CF911F910F91FF90EF904B
:102D7000DF9008958BE10E9458390E947A190F93D1
:102D80001F93CF93DF93EC01F8940E946E26088581
:102D900019852A853B85DC01CB01800F911FA21F7D
:102DA000B31F8C839D83AE83BF83CE010E949A356F
:102DB0007894DF91CF911F910F910895CF93DF9376
:102DC000EC0144969F938F938B891F928F938F85ED
:102DD0008F938E858F931F926F938FEB90E19F93CC
:102DE0008F930E94D4311B8A8E859F8501969F8781
:102DF0008E878DB79EB70A960FB6F8949EBF0FBE0A
:102E00008DBFDF91CF910895DF92EF92FF920F93E4
:102E10001F93CF93DF93CDB7DEB729970FB6F89402
:102E2000DEBF0FBECDBF8C01F62E9E012F5F3F4F40
:102E300089E0F90111928A95E9F782EF898349E0E7
:102E400061E0F801848595850E947D19F8018389E8
:102E500090E09C012C5E3F4FE20FF31F3B81232F3C
:102E6000207F21F1203F11F12FEF24832383228340
:102E70002183F801E80FF91F248BF80183898B5F08
:102E8000838B8E3208F05EC0F801828981FD4FC0CD
:102E900029960FB6F894DEBF0FBECDBFDF91CF915C
:102EA0001F910F91FF90EF90DF9008954D81242F97
:102EB000207FC9F52F81522F507F11F0503FA1F68E
:102EC0005885503989F659855F77E52E50E25E15B1
:102ED00058F2D801A80FB91F5A8154965C938C817F
:102EE00081838E818283822F90E03F71BC01660FC7
:102EF000771F62957295707F7627607F7627362BD5
:102F00003383880F991F880F991F80764F71482B44
:102F10004483F80183898B5F838B4EEFD42EDE0CC4
:102F20008E32B8F012C0203F09F09ECFC3CFC80147
:102F30000E944835F80182898B7F828BC8010E94EC
:102F4000BF16A6CF8EEFD82EE12C6F2DC8010E94A0
:102F5000DE16FEE1FE1530F4F801808991890196B4
:102F6000918B808BFEE1FD1508F48ECF1092260226
:102F700081E0809346028CCFCF92DF92EF92FF9256
:102F80006B017C0109C00E946E26292F6C157D05FE
:102F90008E052F0927FF09C08091BC0087FFF3CF62
:102FA000FF90EF90DF90CF9008958FE20E94583904
:102FB00024EA2093BC000E94BC178091B90090E0E5
:102FC000A0E0B0E080319105A105B10521F008979E
:102FD000A105B10509F408958EE20E9458397F9247
:102FE0008F929F92AF92BF92CF92DF92EF92FF9219
:102FF0000F931F93CF93DF93782EC62F942EB52E69
:10300000822E0E946E266B017C0120E8C20E28E30E
:10301000D21E21E0E21EF11CC701B6010E94D817A2
:103020007092BB0084E88093BC00C701B6010E9487
:10303000BC17AA24AA94AC0ECC23B1F0C92DDB2D69
:10304000B12C8FEFA81AB80AAC0EBD1E94E8992EC9
:1030500089918093BB009092BC00C701B6010E9489
:10306000BC17AC16BD06A1F7C701B6010E94D81760
:10307000872D81608093BB0084E88093BC00C701EA
:10308000B6010E94BC17DFEFD80D882009F1580166
:10309000CD2F84EC982ECC2369F09092BC00C70110
:1030A000B6010E94BC178091BB00F50181935F01BE
:1030B000C15099F7F801ED0FF11DEF0184E88093FD
:1030C000BC00C701B6010E94BC178091BB00888379
:1030D00084E98093BC00DF91CF911F910F91FF9005
:1030E000EF90DF90CF90BF90AF909F908F907F90A8
:1030F0000895BF92CF92DF92EF92FF920F931F93AA
:10310000CF93DF93D82FC62FB42E152F0E946E2693
:103110006B017C0120E8C20E28E3D21E21E0E21EF2
:10312000F11CC701B6010E94D817D093BB0084E8F8
:103130008093BC00C701B6010E94BC170FEF0C0FB3
:10314000CC23A9F0CB2DD12F10E00F5F1F4F0C0F18
:103150001D1F84E8B82E89918093BB00B092BC00FB
:10316000C701B6010E94BC17C017D107A1F784E9B7
:103170008093BC00DF91CF911F910F91FF90EF9052
:10318000DF90CF90BF9008958036A0F567FD32C0E4
:10319000E82FE695E695E695F0E0EE0FFF1FE8557F
:1031A000F04FA591B491109729F1877021E030E09C
:1031B000A90102C0440F551F8A95E2F7CA014FB713
:1031C000F89412963C911297662381F0382B282FA1
:1031D000209512963C93129711963C9111972323B8
:1031E00011962C9311974FBFBD010895282F20955C
:1031F0003223EFCF8AE20E945839FB012FB7F894AF
:103200009281411105C08095892382832FBF089543
:10321000892B82832FBF0895FC011092260281E042
:1032200080934702818D8160818F448155816681C1
:10323000778180859185A285B385840F951FA61F10
:10324000B71F84839583A683B78381E00895FF9297
:103250000F931F93CF93DF93EC01F88483E08F15D6
:10326000E0F04AE150E067E279E188810E94A52818
:103270008C018CE099E1F8019383828369EB73E31D
:103280008C810E94D428F801958B848BF08EDF917D
:10329000CF911F910F91FF9008958DE10E945839B1
:1032A000CF92DF92FF920F931F93CF93DF93EC01A6
:1032B00069EB73E38C810E94D4286C01F8840F2D94
:1032C00010E0A8014D5F5F4F60E579E188810E94C1
:1032D000A528FC01D182C082F2826C857D85A8017F
:1032E0000396DF91CF911F910F91FF90DF90CF90C8
:1032F0000C94B23A8BE10E9458396F927F928F9270
:103300009F92AF92BF92CF92DF92EF92FF920F9374
:103310001F93CF93DF934C01E62E142F6901DC013C
:1033200015967C901597872D867009F451C071FC15
:1033300039C0F401908181819CBD8DBDF72DF17064
:103340006F2E70FCC8C0EE2009F49CC08FEF810F77
:10335000112351F0F60190819EBD0DB407FEFDCF03
:103360009EB591938150B8F7662091F1072D06958F
:1033700006950695402F40954170D40112966D91A7
:103380007D918C91DF91CF911F910F91FF90EF90E4
:10339000DF90CF90BF90AF909F908F907F906F9075
:1033A0000C94FD18ED91FC91418542706681778106
:1033B00080850E94FD18B72DB1706B2E70FC17C070
:1033C000D401CD91DC91AA24AA94A10E111126C09A
:1033D000DF91CF911F910F91FF90EF90DF90CF90F1
:1033E000BF90AF909F908F907F906F900895072D22
:1033F000069506950695402F4170F4016281738110
:1034000084810E94FD18D401CD91DC91AA24AA9454
:10341000A10E112309F4AECF66246394B12C8FEF73
:10342000A81AB80AAC0CBD1CD601FC9008E010E04C
:10343000898580FF35C0EE81FF81888580834F2D8F
:1034400040786B817C818D810E94FD18FF0CEE819C
:10345000FF8188858083110FE881F98190818A81BD
:10346000892391E009F490E0192B015009F7EE202F
:1034700011F0F6011083FFEFCF1ADF0AAC14BD0480
:1034800099F672CFF6019601210F311D2E173F07D5
:1034900009F46ACF81918EBD0DB407FEFDCFF6CF42
:1034A0004F2D40786B817C818D810E94FD18FF0C2F
:1034B000EE81FF8188858083110FE881F9819081F9
:1034C0008A81892391E009F490E0192BEE81FF8134
:1034D00088858083CACF73FA442740F9F40162815A
:1034E000738184810E94FD18662463942CCFCF934E
:1034F000DF93EC0169EB73E388810E94D42828856F
:1035000039854C8160E0DF91CF910C947D19FF9259
:103510000F931F93CF93DF93EC01188169EB73E353
:10352000812F0E94D4280C81F884C9852F2D3C2F2F
:10353000402F61E00E947D19CF93FF921F920F935D
:103540001F921F9383ED90E19F938F930E94D4313C
:103550008DB79EB708960FB6F8949EBF0FBE8DBF6D
:10356000DF91CF911F910F91FF900895CF93DF933B
:10357000EC016A8D662309F453C0FC0150E031E090
:1035800020E0A38DB48D4C91958D942309F0532B9D
:103590002F5F330F33962613F4CF2C85922F952768
:1035A00029F08D85852780959823D9F4888D5D87AE
:1035B00087FD03C0815070F1888F4C815D816E81E1
:1035C0007F8188859985AA85BB85840F951FA61F55
:1035D000B71F8C839D83AE83BF8381E0DF91CF9142
:1035E0000895982F909529238523822B8C879E857B
:1035F0009830E0F621E0290F2E87FE01E90FF11D3A
:1036000087871092260281E0809348028FEF888F8F
:103610005D87D3CF1092260291E090934802CCCFE1
:1036200050E0BBCFAF92BF92DF92EF92FF920F9329
:103630001F93CF93DF93FC01A485B58596854785BD
:103640005089E18822893389F488A588B6887789EA
:10365000008D118DD28C808586279C9384FD20C09F
:1036600085FD22C086FD24C087FD26C09C93862F41
:103670008295807F808768279C9364FD2AC065FDC2
:1036800025C066FD1CC067FD1EC09C93DF91CF91D5
:103690001F910F91FF90EF90DF90BF90AF90089532
:1036A000EA01E88285FFDECFE901F88286FFDCCF00
:1036B000E501788387FFDACFE801D882D7CFF5011B
:1036C000708367FFE2CFE801D882DFCFE901F8829B
:1036D000D8CFFA01E082D3CF0F931F93CF93DF931C
:1036E0008C0168E97BE1DC018C910E94D428FC010B
:1036F000D80114969C91828D9817B8F4292F30E048
:10370000E901CC0FDD1F2C0F3D1FEF01C20FD31FAE
:10371000F801648580850E94C4186B8F7C8F8D8F23
:10372000DF91CF911F910F91089584E20E94583943
:10373000CF93FC01C481C930B8F44C2F50E09A01FA
:10374000220F331F420F531F455E5F4F68E97BE135
:10375000FC0180810E94A528FC01C28F26EB3AE182
:1037600033832283CF91089585E20E9458395F9276
:103770006F927F928F929F92AF92BF92CF92DF9281
:10378000EF92FF920F931F93CF93DF938C01FC0175
:10379000C080D180E280F38084809580A680B7804D
:1037A00066246A94660E662301F1EA01712CFFEF2C
:1037B0006F1A7F0A640E751E59900E946E26DC01F6
:1037C000CB018C199D09AE09BF0988159905AA0579
:1037D000BB0598F3652DC8010E94121B0E946E263E
:1037E0006B017C01C615D70539F7F801C082D1827B
:1037F000E282F382DF91CF911F910F91FF90EF90C2
:10380000DF90CF90BF90AF909F908F907F906F9000
:103810005F9008950F931F93CF93DF93EC0162E4C1
:103820007CE188810E94D4288C01FC01618572852D
:10383000838541E00E94FD18488559856C81C80147
:10384000DF91CF911F910F910C94B71B0F931F9392
:10385000CF93DF93EC0162E47CE188810E94D4285D
:103860008C01FC0161857285838540E00E94FD1812
:10387000488559856C81C801DF91CF911F910F91C7
:103880000C94B71BCF92DF92EF92FF920F931F938E
:10389000CF93DF93EC014BE150E062E47CE188815F
:1038A0000E94A5288C0160E08C810E941C25F801F3
:1038B00061877287838760E088850E941C25F801F4
:1038C00064877587868760E08C850E941C25F801D7
:1038D0006787708B818B60E088890E941C25F801C6
:1038E000628B738B848B60E08C890E941C25F801AD
:1038F000658B768B878B60E0888D0E941C25F80194
:10390000608F718F828FF8940E946E266B017C010C
:1039100060E0C8010E94121B0E946E267894DC01B0
:10392000CB018C199D09AE09BF09CC8CDD8CEE8CC6
:10393000FF8C8C159D05AE05BF0548F4C81AD90A41
:10394000EA0AFB0AF801C482D582E682F782DF9197
:10395000CF911F910F91FF90EF90DF90CF9008953E
:103960004F925F926F927F928F929F92AF92BF928F
:10397000CF92DF92EF92FF920F931F93CF93DF933B
:103980008C01562E3A01FC0180809180A280B38088
:10399000C480D580E680F780EA012196FA01408054
:1039A000642D607F0E94782F0E946E26DC01CB017F
:1039B00088199909AA09BB098C159D05AE05BF0593
:1039C00098F3642D6295607FC8010E94782F0E9451
:1039D0006E266B017C01F80180849184A284B384FB
:1039E000F1E05F1639F15A945A94852D90E00296D1
:1039F000680E791E5990652D607FC8010E94782F4E
:103A00000E946E26DC01CB018C199D09AE09BF090D
:103A100088159905AA05BB0598F3652D6295607F09
:103A2000C8010E94782F0E946E266B017C01C6158A
:103A3000D70501F7F801C082D182E282F382DF91DB
:103A4000CF911F910F91FF90EF90DF90CF90BF909B
:103A5000AF909F908F907F906F905F904F90089560
:103A6000CF92DF92EF92FF92CF93DF93FC01A0857C
:103A7000B18582858C93968581E089278687C82FBA
:103A8000C170C688D788E08CF18C97859F5FD189FB
:103A90009D1708F05FC0892F869586958695DF0172
:103AA000A80FB11D5A962C9130E0892F877002C063
:103AB000359527958A95E2F72170B701A601C217BF
:103AC000A9F033C0892F869586958695DF01A80FCA
:103AD000B11D5A962C9130E0892F877002C0359520
:103AE00027958A95E2F72170C2131FC04C0D5D1D0A
:103AF0006E1D7F1D9F5F9D1728F38BE290E29383DD
:103B0000828384819581A681B781480F591F6A1FDE
:103B10007B1F448355836683778381E0DF91CF9158
:103B2000FF90EF90DF90CF900895978784819581E3
:103B3000A681B781480F591F6A1F7B1F4483558395
:103B40006683778381E0DF91CF91FF90EF90DF90E4
:103B5000CF900895B701A601D0CFCF92DF92EF9218
:103B6000FF920F931F93CF93DF93EC01E885F985C4
:103B70008A8580830E946E263E8521E023272E873A
:103B80002F852F5F2F87213009F45CC02530E0F4AA
:103B90000C811D812E813F814A895B896C897D89D9
:103BA000DB01CA01800F911FA21FB31F8C839D836D
:103BB000AE83BF8381E0DF91CF911F910F91FF9082
:103BC000EF90DF90CF900895CC80DD80EE80FF8075
:103BD000AB01BC014C195D096E097F098E899F8973
:103BE000A88DB98D481B590B6A0B7B0BDB01CA01F1
:103BF0000296A11DB11DB7FD34C0B595A795979547
:103C00008795B595A795979587950A891B892C89DE
:103C10003D89800F911FA21FB31F8E8B9F8BA88F92
:103C2000B98F20E33DE13B832A834C0D5D1D6E1D62
:103C30007F1D840F951FA61FB71F8C839D83AE83A6
:103C4000BF83B8CF0C811D812E813F81AB01BC01A8
:103C5000401B510B620B730B4E8B5F8B688F798F00
:103C60009BCFDB01CA010596A11DB11DC6CFEF9206
:103C7000FF920F931F93CF93DF937C0168ED7EE15A
:103C8000FC0180810E94D428EC011E8511FF07C031
:103C9000DF91CF911F910F91FF90EF900895F70161
:103CA000048160857185F4840B3008F045C0FAE02A
:103CB000FF1508F441C0402F50E04A960E94B23AE6
:103CC0001F86117312601E87802F880F880F880F40
:103CD000898BFF0CFF0CFF0CF88A002349F08A8DBA
:103CE0008F738A3229F48DEA9DE19B838A830CC00D
:103CF0008A899B89AC89BD898E8B9F8BA88FB98F50
:103D000080E39DE19B838A83F8940E946E26DC0108
:103D1000CB018058934FAF4FBF4F8C839D83AE83B1
:103D2000BF83CE010E949A357894DF91CF911F9185
:103D30000F91FF90EF90089586E20E9458390F93FB
:103D40001F93CF93DF938C0168E97BE1DC018C91B9
:103D50000E94D428EC01D8011496EC918F898E0F23
:103D60008F8BF8948E85E817D0F48E1BF0E03F9689
:103D7000EC0FFD1FDE011F962FEF280F30E0205FB4
:103D80003F4F2C0F3D1F91919D93A217B307D9F779
:103D90008E877894DF91CF911F910F9108951E86A1
:103DA0008EEF888F7894DF91CF911F910F910895B6
:103DB0007F928F929F92AF92BF92CF92DF92EF92BB
:103DC000FF920F931F93CF93DF93EC0144E250E0F7
:103DD00068ED7EE188810E94A5288C0178848C8022
:103DE0009D80AE80BF80CC84DD84EE84FF8461E062
:103DF000711001C060E0882D0E94C418F80163872B
:103E00007487858761E08C2D0E941C25F8016087EE
:103E10007187828788899989AA89BB89828B938BCC
:103E2000A48BB58B711018C091E08C149D04AE0466
:103E3000BF04C1F080E0892BF8018687DF91CF9124
:103E40001F910F91FF90EF90DF90CF90BF90AF90B8
:103E50009F908F907F90089591E18C149D04AE0403
:103E6000BF0441F780E2E7CF0F931F93CF93DF9317
:103E70008C0168E97BE1FC0180810E94D428EC017F
:103E80000E944835F80184819581A681B7818C8391
:103E90009D83AE83BF834085518562857385488746
:103EA00059876A877B8780898D878C871E861F8AC2
:103EB0008EEF888F8485898F87FD10C0452B462B18
:103EC000472B29F4DF91CF911F910F910895CE01D7
:103ED000DF91CF911F910F910C949A3583E20E944C
:103EE0005839CF93DF93EC018E8585FD0DC0688531
:103EF00079858A8541E00E94FD188E8580738160F6
:103F00008E87DF91CF910895E885F9858A852FB74F
:103F1000F8949281982B92839181892B81832FBF72
:103F20008E85807381608E87DF91CF910895CF93C6
:103F3000DF93FC01A385B4855C918785982F9770EA
:103F400021E030E001C0220F9A95EAF7982F96956C
:103F500096959695DF01A90FB11D5A969C915A9797
:103F600045854523E1F0292B5A962C938F5F908944
:103F70008917E8F48787448155816681778186892E
:103F80009789A08DB18D840F951FA61FB71F8483BD
:103F90009583A683B78381E0DF91CF910895209523
:103FA00029235A962C938F5F9089891718F3EF0174
:103FB000CF010E94711F8E8588608E871092260225
:103FC00081E08093490280E0DF91CF910895CF9303
:103FD000DF93FC01A385B4859C9185858923E9F055
:103FE000868584608687878591E0980F97878034DF
:103FF00008F5448155816681778186899789A08DEE
:10400000B18D840F951FA61FB71F84839583A68348
:10401000B78381E0DF91CF910895868582FFE3CF5A
:10402000178687E99FE193838283CF01DF91CF9148
:104030000C94971FEF01108ACF010E94711F8E858B
:1040400088608E871092260281E08093490280E08A
:10405000DF91CF9108950F931F93CF93FC01C089F7
:10406000CC23E9F1868585FD23C0178687EE9FE185
:104070009383828386899789A08DB18D880F991F3C
:10408000AA1FBB1F880F991FAA1FBB1F4481558100
:1040900066817781840F951FA61FB71F8483958340
:1040A000A683B783C1E08C2FCF911F910F91089504
:1040B000A385B48595852FB7F89484FF21C0129607
:1040C0008C911297892B909512968C93129711963A
:1040D0008C911197982311969C932FBFC6CF8C017A
:1040E0000E94711FF80186858860868710922602DB
:1040F00081E0809349028C2FCF911F910F910895F9
:1041000012968C91129790958923DECF1F93CF93AF
:10411000DF93EC01162FAC89BD891097B9F0129688
:10412000ED91FC9113978D919C9111979D8B8C8BA8
:1041300011961C921E9213961C921E921297612F3A
:10414000CD011995AC89BD89109749F710922602C7
:1041500081E080934A02DF91CF911F910895FC0185
:104160003897968990FF08C0608D678B9A7F94601E
:10417000968BCF010E94862080E00895FC018689FD
:104180008460868B1092260281E080934A024481EB
:1041900055816681778180899189A289B389840F4D
:1041A000951FA61FB71F84839583A683B78381E0DD
:1041B0000895FC01A085B1859C9182858923D1F069
:1041C000818D80958170C9F4838D815031F1838F09
:1041D000448155816681778187859089A189B289DB
:1041E000840F951FA61FB71F84839583A683B7836B
:1041F00081E00895818D817039F384E699E293839B
:10420000828383899489A589B68984839583A683CB
:10421000B783828D838F81E00895A789B08D5696EC
:104220009C915697892F817090FFE3CF648D5796AC
:104230006C9357979A7F946056969C935697CD01AE
:104240000E94862080E00895FC0180917A0086FF1C
:104250000EC084819581A681B7818853984FAF4F56
:10426000BF4F84839583A683B78381E00895828DB1
:1042700090910902981781F09F3F59F780930902A6
:10428000982F987090937B008770806480937C0057
:1042900087ED80937A00DDCF8FEF80930902209124
:1042A000780030917900858D968D891780F5448945
:1042B0005589240F351F8F5F358B248B858F891788
:1042C00060F18689978928173907C8F1808D918D0B
:1042D00082179307A0F1138E1092260281E080933B
:1042E0004B02408951896289738980859185A285B5
:1042F000B385840F951FA61FB71F808B918BA28B50
:10430000B38B84839583A683B78381E0089581E08E
:10431000358B248B858F8917A0F644815581668162
:10432000778184859585A685B785840F951FA61FFF
:10433000B71F84839583A683B78381E00895838D17
:104340008F5F838F948D891738F2809127028111B6
:10435000C2CF8AE10E945839EF92FF921F93CF9308
:10436000DF937C01FC01108163E272E2812F0E94E5
:10437000D428EC01F8948E8980FF09C0F70164818C
:104380006F8B8A7F84608E8BCE010E948620CE0147
:104390000E944835CE0108960E9448351E8A8F89B2
:1043A00078941F921F921F921F921F928F931F92B9
:1043B0001F921F921F938DED90E19F938F930E9408
:1043C000D4318DB79EB70C960FB6F8949EBF0FBE32
:1043D0008DBFDF91CF911F91FF90EF900895CF9304
:1043E000FC01C08169EB72E28C2F0E94D428FC0191
:1043F000F894818D33894489558966897894A0859C
:10440000B1852C919285922321E009F420E01F923E
:104410002F936F935F934F933F93869581701F9275
:104420008F931F92CF9382EE90E19F938F930E9480
:10443000D4318DB79EB70C960FB6F8949EBF0FBEC1
:104440008DBFCF91089549E150E063E272E2FC0133
:1044500080810E94A5282EEB30E2FC013383228369
:104460002FEA30E2338722870895EF92FF920F936D
:104470001F93CF93DF938C0163E272E2FC01808192
:104480000E94D428EC01F8948E8980FF13C07E012D
:10449000F8E0EF0EF11CC7010E944835F801848155
:1044A0009581A681B7818C879D87AE87BF87C7011D
:1044B0000E949A357894DF91CF911F910F91FF90D0
:1044C000EF9008950F931F93CF93DF938C0169EBC7
:1044D00072E2FC0180810E94D428EC010E944835E0
:1044E000F80184819581A681B7818C839D83AE83F9
:1044F000BF8380859185A285B3858F87988BA98B93
:10450000BA8B84858A8F882361F1F80140895189AB
:10451000628973894B875C876D877E8724E639E2E1
:104520003B832A838B8F84899589A689B789892BB8
:104530008A2B8B2BA1F482E0898F63E272E2F8016F
:10454000808D0E94D428988F8F8BF801848D8C8F5A
:10455000CE01DF91CF911F910F910C949A3583E09A
:10456000EBCF188E1F8A198EDF91CF911F910F917B
:1045700008950F931F93CF93DF93EC014DE150E02B
:1045800069EB72E288810E94A5288C0168858C8184
:104590000E94C418F801608771878287DF91CF91EC
:1045A0001F910F910895CF93DF93EC010E9448353E
:1045B000CE0108960E944835EC89FD89309751F06C
:1045C000908181811382128211821082E92FF82F4B
:1045D0003097B1F71D8A1C8A188E1F8A1E8ADF91B8
:1045E000CF9108950F931F93CF93DF938C0163E2D4
:1045F00072E2FC0180810E94D428EC01F8940E94B0
:10460000D32281E08E8BF80184819581A681B781C8
:104610008C839D83AE83BF8380859185A285B3857E
:10462000888B998BAA8BBB8B892B8A2B8B2B19F0B0
:10463000CE010E949A35F8018485888F7894DF91A5
:10464000CF911F910F9108950F931F93CF93DF93F5
:10465000FC01A189B2898D919C911197928B818BDC
:1046600016968D919C911797C085D1852285211131
:104670003FC02FB7F894AC015527598348832FBF0B
:1046800020914C0230914D0211963C932E93B093A1
:104690004D02A0934C02A189B289109759F5278544
:1046A00030898217930741F083859485A585B68567
:1046B0000097A105B10531F480E0DF91CF911F9102
:1046C0000F9108954481558166817781840F951FEC
:1046D000A61FB71F84839583A683B78389EA93E2D5
:1046E0009383828381E0DF91CF911F910F91089591
:1046F0008883C6CF12964D915D916D917C911597EF
:10470000278530898217930741F083859485A58595
:10471000B6850097A105B10551F44483558366839E
:10472000778381E0DF91CF911F910F9108950481EC
:10473000158126813781800F911FA21FB31F2B2F58
:1047400084179507A607270B27FFE7CF8FE10E9465
:10475000583980E20E9458392F923F924F925F92CF
:104760006F927F928F929F92AF92BF92CF92DF9281
:10477000EF92FF920F931F93CF93DF9300D01F927E
:104780001F92CDB7DEB77C012DB73EB73D832C839A
:1047900064EC74E1DC018C910E94D4289B838A83B1
:1047A000F701F481F983D70118966D907C901997E1
:1047B0001C968D919D910D90BC91A02D80FD6BC09C
:1047C0001C012D015694479437942794F701E088F3
:1047D000F188C22CD12CF9810F2F10E0C8018C0D6B
:1047E0009D1D2DB73EB7281B390B0FB6F8943EBF61
:1047F0000FBE2DBF8DB79EB701965C01A801B30116
:104800000E94B23A4501800E911E8401222DA3011F
:104810006981AA81BB818C910E94EF17C114D104D8
:1048200099F0CE0CDF1CF4019601D7018D917D012A
:104830008095908189238083D9019D919D01892B49
:104840008193CE14DF0489F76981620DA501EA81A5
:10485000FB8180810E947918EC81FD810FB6F8946C
:10486000FEBF0FBEEDBF0F900F900F900F900F90F7
:10487000DF91CF911F910F91FF90EF90DF90CF903C
:10488000BF90AF909F908F907F906F905F904F9070
:104890003F902F9008958EE10E945839B0990FC033
:1048A00080914F0290915002019610920502109251
:1048B0000402909307028093060281E0089581E04C
:1048C00086BB80914F0290915002019690935002C6
:1048D00080934F0220E030E83093050220930402D9
:1048E000909307028093060281E00895CF93DF93AF
:1048F000FC0184819581A681B781448955896689A7
:104900007789C58DD68D3881C42FC170278D23231B
:1049100031E009F430E0C31761F04F5F5F4F6F4F34
:104920007F4F448B558B668B778B808F918FA28FB7
:10493000B38F4089518962897389272F4817590796
:104940006A072B0B27FF18C0248D2160248F448514
:10495000558566857785840F951FA61FB71F808BA9
:10496000918BA28BB38B1092260281E080934E0232
:1049700084819581A681B781408551856285738543
:10498000840F951FA61FB71F84839583A683B783C3
:1049900081E0DF91CF9108950F931F93CF93DF9321
:1049A0008C016EEF74E2FC0180810E94D428EC013E
:1049B0000E944835F80184819581A681B7818C8356
:1049C0009D83AE83BF83408551856285738548870B
:1049D00059876A877B8744855585668577854C87A7
:1049E0005D876E877F87888B998BAA8BBB8BCE0167
:1049F000DF91CF911F910F910C949A350F931F93D4
:104A0000CF93DF93EC0140E250E06EEF74E28881D7
:104A10000E94A5288C0168858C810E94C418F80129
:104A2000658F768F878F86E794E293838283DF9109
:104A3000CF911F910F910895803678F5E82FE69574
:104A4000E695E695F0E0EE0FFF1FE855F04FA591D3
:104A5000B491109711F1877021E030E0A90102C0F4
:104A6000440F551F8A95E2F7CA013FB7F894129692
:104A70002C91129761110FC04095242312962C930C
:104A8000129711962C911197282B11962C93119710
:104A90003FBFBD010895242BF1CF8BE20E9458390E
:104AA0001F920F920FB60F9211240BB60F92EF9236
:104AB000FF920F931F932F933F934F935F936F93A7
:104AC0007F938F939F93AF93BF93CF93DF93EF9396
:104AD000FF930DC07A0180918400909185008E191A
:104AE0009F0997FD7CC07894B2999AC0F894C091C0
:104AF0002202D0912302EA81FB81309709F0ADC0F8
:104B0000EA8DFB8D2C8D20838E859F85019709F47E
:104B1000C1C09F878E8788859985AA85BB854C8172
:104B20005D816E817F81480F591F6A1F7B1F4C83F7
:104B30005D836E837F8320832CA525FF0EC00C85AB
:104B40001D85012E000C220B330B800F911FA21F1D
:104B5000B31F88879987AA87BB87E881F981048179
:104B6000158126813781872F401751076207830BF4
:104B700087FDB0CF7801F0932302E0932202A09149
:104B80002402B091250214960D911D912D913C9116
:104B90001797872F401751076207830B87FFFD0187
:104BA000DF010190F081E02D04811581268137819C
:104BB000872F401751076207830B87FFF1CFF983D7
:104BC000E883CD93DC93D0932502C0932402809197
:104BD0008400909185008E199F0997FF84CF863AB3
:104BE0009F4F0CF06AC0F0928900E0928800FF911C
:104BF000EF91DF91CF91BF91AF919F918F917F9175
:104C00006F915F914F913F912F911F910F91FF9065
:104C1000EF900F900BBE0F900FBE0F901F90189546
:104C2000F89480918400909185009701281B390B9E
:104C30002038314CDCF12091260227FF43C09C0133
:104C4000205C304E30938B0020938A0024E026BBFA
:104C500090938900809388003ECFCE0119954C81B6
:104C60005D816E817F81811178CFE881F981E48057
:104C7000F580F0932302E093220280912402909128
:104C80002502C817D90709F026CFF0932502E09333
:104C9000240221CFCE010E94F22CEA8DFB8D9C8D47
:104CA00090834C815D816E817F81DDCF20912702D1
:104CB0002111C1CF89E20E9458397894B299B0CFBE
:104CC000F89409CF9C012854344F30938B002093E3
:104CD0008A0024E026BB7C01F39485CF2FB7F8949B
:104CE000609184007091850080914F0290915002F4
:104CF000B09902C02FBF08952FBF7F3FE1F3019607
:104D0000089578940E9471372FEF260F6623C1F023
:104D1000FC018FEF9FEF31918327082E8295807FD2
:104D20008025092E982F82958F70082686959827C2
:104D30008927880F880F880F8025215060F70895F4
:104D40008FEF9FEF08950F931F93FC01A489B589FE
:104D500086898C9393A181E0892783A3448155811F
:104D60006681778180FF12C0008511852285338599
:104D7000400F511F621F731F82FD12C04483558371
:104D80006683778381E01F910F91089504851585CF
:104D900026853785400F511F621F731F82FFEECF9C
:104DA0000089118922893389872F401751076207AB
:104DB000830B87FDE3CF87E097E293838283B9017A
:104DC000A801448355836683778381E01F910F9107
:104DD00008950895FC018081A481B58140855185A5
:104DE000628573859FB7F894813061F0823019F045
:104DF0004C939FBF08954D935D936D937C93139750
:104E00009FBF089511965C934E939FBF08958F9214
:104E10009F92AF92BF92CF92DF92EF92FF921F9339
:104E2000CF93DF93EC01EF8CF8A0E114F10409F4C7
:104E3000F0C0F7018081918198A38F8F8680978041
:104E4000A084B18411E081149104A104B10409F497
:104E5000A1C06C897D898E89412F0E94FD188091A7
:104E60004C0290914D02F70191838083F0924D02A4
:104E7000E0924C0281149104A104B104E9F08B8DFD
:104E80009C8DAD8DBE8D88169906AA06BB06A0F432
:104E90004F89588D698D7A8D4115510561057105D0
:104EA00009F45BC08C819D81AE81BF81480F591F81
:104EB0006A1F7B1F166022C08BA131E08114910410
:104EC000A104B10409F068C084FB992790F921E09E
:104ED0009227391709F443C04F89588D698D7A8D0F
:104EE0004115510561057105D1F18C819D81AE811E
:104EF000BF81480F591F6A1F7B1F1460EF8DF8A1F7
:104F0000309709F077C02BA1488B598B6A8B7B8B2C
:104F10002071212B2BA311FF5FC0880D991DAA1DA5
:104F2000BB1D12FD52C023EA36E23B832A838C83E9
:104F30009D83AE83BF8388869986AA86BB868B8D28
:104F40009C8DAD8DBE8D88199909AA09BB098C87E6
:104F50009D87AE87BF8781E011C012608BA1EF8D66
:104F6000F8A13097D9F4188A198A1A8A1B8A807195
:104F7000812B8BA3812F827011FD34C0DF91CF91E3
:104F80001F91FF90EF90DF90CF90BF90AF909F90D8
:104F90008F90089510E05DCF30E096CF428153812D
:104FA00064817581488B598B6A8B7B8B8071912FC3
:104FB0009460892B8BA311FF0FC08C819D81AE81E2
:104FC000BF81880D991DAA1DBB1D2B2F8417950726
:104FD000A607270B27FDA7CF4C835D836E837F83B6
:104FE00081E0CCCF40E050E0BA018C819D81AE8160
:104FF000BF8193CFC280D380E480F580872F4C158A
:105000005D056E058F0987FD07C08BA1B701A6015D
:10501000C9CF85E10E94583983E10E945839FC01CB
:1050200085818F9384818F9380811F928F9381EFED
:1050300090E19F938F930E94D4310F900F900F9027
:105040000F900F900F900895DC012C911496ED9124
:10505000FC9115973FB7F8942130E9F02230B1F078
:10506000808190E0A0E0B0E03FBFBF93AF939F93FB
:105070008F938CEE90E19F938F930E94D4310F9089
:105080000F900F900F900F900F9008958081918155
:10509000A281B381E9CF80819181A0E0B0E0E4CF2B
:1050A000CF92DF92EF92FF92FC01408151816281A9
:1050B00073812481E4EAFFE085919591A591B491F3
:1050C000481759076A077B0770F56A017B01C20E12
:1050D000D11CE11CF11C8C159D05AE05BF0500F52A
:1050E000841B90E09A01215C3A4F3F932F939F934A
:1050F0008F937F936F935F934F938AE091E19F9398
:105100008F930E94D4318DB79EB70A960FB6F8944C
:105110009EBF0FBE8DBFFF90EF90DF90CF900895A0
:10512000822F90E0DFCF80E090E0DCCF80912702FB
:10513000882329F0823011F010922702089582E02E
:105140000E9458398EE00E945839CF93DF93909196
:105150003702891730F5C82FD0E0CC0FDD1FCC0FF8
:10516000DD1FE0913802F0913902EC0FFD1F8081C4
:105170009181892BB1F480913F0290914002892B5B
:1051800081F471836083CA010E94B1312091380299
:1051900030913902C20FD31F9B838A83DF91CF9155
:1051A00008958BE00E94583990913702891788F44E
:1051B000E0913802F091390294E0899FE00DF11DF1
:1051C0001124808191818617970719F48281938138
:1051D00008958CE00E945839CF92DF92EF92FF92AF
:1051E000CF93DF93C0913F02D09140022097B9F155
:1051F00021976E01E12CF12CA0913E02B0E02097A6
:10520000D9F020E030E040E050E0BA0180913C026B
:1052100090913D02FC01E20FF31F4F5F5F4F6F4F14
:105220007F4F2A0F3B1F820F931F918380834C1562
:105230005D056E057F0550F380913C0290913D0223
:10524000CA9FF001CB9FF00DDA9FF00D1124E80FFB
:10525000F91F1182108290934D0280934C02DF91CE
:10526000CF91FF90EF90DF90CF900895FC011382D3
:105270001282118210826F3F710509F07CF48091D7
:105280003F0290914002892B49F480913E0290E0C8
:105290008617970714F460933E0208950E94A2288F
:1052A0002FB7F89480914C0290914D02009749F0ED
:1052B000FC014081518150934D0240934C022FBF1D
:1052C00008958FE00E9458390F931F93FC01A08529
:1052D000B1859C9104811581268137814385548550
:1052E00065857685400F511F621F731F8285892354
:1052F00061F0818D8095817059F044835583668378
:10530000778381E01F910F910895818D8170A9F7B6
:10531000438B548B658B768B89ED90E293838283EC
:10532000CF011F910F910C94D920CF93DF93EC0103
:105330006CE97CE288810E94D428FC018C819D81EB
:10534000AE81BF81892B8A2B8B2B51F420E0F894FE
:1053500094A59D7F922B94A77894DF91CF91089587
:1053600022E0F5CF0F931F93CF93DF938C01EC01D5
:10537000A897CE010E9448351C821D821E821F8282
:105380001A8A1B8A1C8A1D8A88A199A1AAA1BBA17D
:105390002CA54E855F856889798924FD04C07695A2
:1053A000679557954795841B950BA60BB70BB7FDD3
:1053B00040C0B095A095909581959F4FAF4FBF4F3E
:1053C00088A399A3AAA3BBA31E861F86188A198A3D
:1053D000247128602CA76D8D7E8D8F8D40E00E94FA
:1053E000FD184CA544706A8D7B8D8C8D0E94FD1834
:1053F000D8011497ED91FC9111973097A9F0409145
:105400004C0290914D0201C0F9012081318140830D
:105410009183F0934D02E0934C024E2F9F2F211564
:10542000310591F71D921C92DF91CF911F910F9141
:105430000895B095A095909581959F4FAF4FBF4F20
:10544000B8CF0F931F93CF93DF938C016CE97CE26D
:10545000FC0180810E94D428EC0163E272E2F80131
:1054600084810E94D428BE01685D7F4F4FB7F894B5
:105470002AA53BA5232B89F422EB39E23BA72AA7D7
:10548000FC012489358939A728A7758B648B4FBF08
:10549000DF91CF911F910F91089589E10E945839B2
:1054A000CF93DF93EC016CE97CE288810E94D428E1
:1054B000FC018C819D81AE81BF81F8944685578522
:1054C00060897189452B462B472B79F4848395831A
:1054D000A683B783828B938BA48BB58B84A5877FA0
:1054E00084A77894DF91CF91089586E10E9458397E
:1054F000CF93FC01C0816CE97CE28C2F0E94D42800
:10550000FC01F89480A191A1A2A1B3A124A5468594
:1055100057856089718924FD04C0769567955795F4
:105520004795841B950BA60BB70BB7FF07C0B0952B
:10553000A095909581959F4FAF4FBF4F7894B054F1
:10554000BF93AF939F938F931F92CF9387EE90E17A
:105550009F938F930E94D4318DB79EB708960FB654
:10556000F8949EBF0FBE8DBFCF910895CF92DF926A
:10557000EF92FF921F93CF93DF936A017B0160EC60
:105580007FE0FB019491981749F0675F7F4FF0E14E
:1055900060357F07B1F783E30E945839FB013896E5
:1055A000949191FF1AC030EAC3163FE5D306E10497
:1055B000F10408F483C0C0E8CC16CEE7DC06C1E0F5
:1055C000EC06F10408F090C0D0E4CD16DFEBDD0668
:1055D000E104F104C8F414E022C0F8EBCF16F7E4BC
:1055E000DF06E104F10490F0A0ECCA16AEE3DA069F
:1055F000A1E0EA06F10408F475C0C114BBEFDB06B4
:10560000B4E0EB06F10438F315E009C037EFC31638
:1056100038E0D306E104F10408F05FC011E0FB01BB
:105620003396A591B491FB013596C591D491FB01B8
:1056300037963491E82FE695E695E695F0E0EE0F83
:10564000FF1FE855F04F459154918770E1E0F0E07D
:105650007F0101C0EE0C8A95EAF7FB013196C590F7
:10566000D490892F8170A038B10509F44BC0EFB7F1
:10567000F8949881977011F0191341C01883811123
:105680002EC09FB7F894622F70E0E601798368839B
:105690009FBF9C913160392B3C93DA0111969C910C
:1056A0001197E92A1196EC92EFBFB601DF91CF91E5
:1056B0001F91FF90EF90DF90CF900895A8EDCA164C
:1056C000A7E2DA06E104F10468F4B7EFCB16B8E01C
:1056D000DB06E104F10408F4A1CF12E0A0CFE6015B
:1056E0002883D7CF13E09BCFC114EBEFDE06E4E0B5
:1056F000EE06F10410F416E092CF17E090CF81E3AC
:105700000E94583982E30E9458394F925F926F92FB
:105710007F92BF92CF92DF92EF92FF920F931F93EF
:10572000CF93DF93FC01B0806AE57CE28B2D0E9471
:10573000D428EC014D805E806F807884C984DA843F
:10574000EB84FC840E946E26DC01CB018419950950
:10575000A609B7098C159D05AE05BF0568F40E9422
:105760006E26DC01CB0184199509A609B7098C15B1
:105770009D05AE05BF0598F3CD84DE8468817981EF
:105780008A81A0918400B09185000B811C819E01CB
:10579000215F3F4F7901C20ED31ECE14DF0409F4FE
:1057A00057C0F70191917F0128E013C0F894409110
:1057B000840050918500FB01808380837894FA01F6
:1057C000EA1BFB0BE017F107D8F4990FDA0121501F
:1057D00021F397FFEBCFF89440918400509185001E
:1057E000FB0180837894FA01EA1BFB0BE017F107B9
:1057F00038F4990FF894FB0180837894DA01E7CFAD
:1058000040E00E94FD180E946E266D837E838F8388
:10581000988780E01F928F931F92BF9287E990E153
:105820009F938F930E94D4310F900F900F900F9001
:105830000F900F90DF91CF911F910F91FF90EF90FC
:10584000DF90CF90BF907F906F905F904F900895C2
:105850000E946E266D837E838F83988781E0DACFE6
:105860000F931F93CF93DF93EC016AE57CE288816D
:105870000E94D4280C811D812E813F8148856C8532
:105880007D8517FD14C050E0DA01A00FB11FEC01B7
:10589000ED85FE85EA17FB0750F0015F1F4F800F73
:1058A000911FDF91CF911F910F910C94B23A87E233
:1058B0000E9458396F927F928F92CF92DF92EF922F
:1058C000FF92CF93DF93EC0160E08C810E941C2556
:1058D0003B01882EC884D984EA84FB84D7FC24C089
:1058E000A601415F5F4F6AE57CE288810E94A5289E
:1058F000FC01608271828282D686C5868C859D85F8
:105900009483838388899989AA89BB8981879287AF
:10591000A387B487DF91CF91FF90EF90DF90CF9076
:105920008F907F906F90089588E20E945839FC0113
:10593000648180810C941C250F931F93CF93DF9378
:105940008C014DE250E06CE97CE2FC0180810E9418
:10595000A528EC01F801848518160CF041C064E01C
:105960006CA7F80184810E941C256A8F7B8F8C8F25
:1059700060E0F80180850E941C256D8F7E8F8F8FDF
:1059800080E090E0A0E0B0EC88A399A3AAA3BBA319
:10599000F80180899189A289B3898E8B9F8BA88F0A
:1059A000B98F6BE070E0CE0184960E9436298E8913
:1059B0009F89A88DB98D8997A105B10548F08FE21F
:1059C0009EE29B838A83DF91CF911F910F9108956F
:1059D0008CA580618CA7DF91CF911F910F910895C5
:1059E00060E0BECFCF92DF92EF92FF92CF93DF9332
:1059F000FC01A4A1B5A1109761F416861786108A40
:105A0000118A80E0DF91CF91FF90EF90DF90CF90EF
:105A100008958D919C91119795A384A316968D91CD
:105A20009C911797958784871296CD90DD90ED9085
:105A3000FC901597AC01092E000C660B770B4C0DF2
:105A40005D1D6E1D7F1D408751876287738724A56A
:105A500024FD43C04289538964897589C40ED51ECB
:105A6000E61EF71EC28AD38AE48AF58AC482D582EA
:105A7000E682F78218968D919C911997AC0160E0AF
:105A800070E0440F551F661F771F46875787608B4E
:105A9000718B1A962C911A9720FD3FC040A151A1FD
:105AA00062A173A1480F591F611D711D40A351A32D
:105AB00062A373A380914C0290914D0211969C9326
:105AC0008E93B0934D02A0934C0281E0DF91CF9171
:105AD000FF90EF90DF90CF900895448155816681CB
